{
  "contractName": "Color",
  "abi": [
    {
      "inputs": [],
      "stateMutability": "nonpayable",
      "type": "constructor"
    },
    {
      "anonymous": false,
      "inputs": [
        {
          "indexed": true,
          "internalType": "address",
          "name": "owner",
          "type": "address"
        },
        {
          "indexed": true,
          "internalType": "address",
          "name": "approved",
          "type": "address"
        },
        {
          "indexed": true,
          "internalType": "uint256",
          "name": "tokenId",
          "type": "uint256"
        }
      ],
      "name": "Approval",
      "type": "event"
    },
    {
      "anonymous": false,
      "inputs": [
        {
          "indexed": true,
          "internalType": "address",
          "name": "owner",
          "type": "address"
        },
        {
          "indexed": true,
          "internalType": "address",
          "name": "operator",
          "type": "address"
        },
        {
          "indexed": false,
          "internalType": "bool",
          "name": "approved",
          "type": "bool"
        }
      ],
      "name": "ApprovalForAll",
      "type": "event"
    },
    {
      "anonymous": false,
      "inputs": [
        {
          "indexed": true,
          "internalType": "address",
          "name": "from",
          "type": "address"
        },
        {
          "indexed": true,
          "internalType": "address",
          "name": "to",
          "type": "address"
        },
        {
          "indexed": true,
          "internalType": "uint256",
          "name": "tokenId",
          "type": "uint256"
        }
      ],
      "name": "Transfer",
      "type": "event"
    },
    {
      "inputs": [
        {
          "internalType": "address",
          "name": "to",
          "type": "address"
        },
        {
          "internalType": "uint256",
          "name": "tokenId",
          "type": "uint256"
        }
      ],
      "name": "approve",
      "outputs": [],
      "stateMutability": "nonpayable",
      "type": "function"
    },
    {
      "inputs": [
        {
          "internalType": "address",
          "name": "owner",
          "type": "address"
        }
      ],
      "name": "balanceOf",
      "outputs": [
        {
          "internalType": "uint256",
          "name": "",
          "type": "uint256"
        }
      ],
      "stateMutability": "view",
      "type": "function",
      "constant": true
    },
    {
      "inputs": [
        {
          "internalType": "uint256",
          "name": "",
          "type": "uint256"
        }
      ],
      "name": "colors",
      "outputs": [
        {
          "internalType": "string",
          "name": "",
          "type": "string"
        }
      ],
      "stateMutability": "view",
      "type": "function",
      "constant": true
    },
    {
      "inputs": [
        {
          "internalType": "uint256",
          "name": "tokenId",
          "type": "uint256"
        }
      ],
      "name": "getApproved",
      "outputs": [
        {
          "internalType": "address",
          "name": "",
          "type": "address"
        }
      ],
      "stateMutability": "view",
      "type": "function",
      "constant": true
    },
    {
      "inputs": [
        {
          "internalType": "address",
          "name": "owner",
          "type": "address"
        },
        {
          "internalType": "address",
          "name": "operator",
          "type": "address"
        }
      ],
      "name": "isApprovedForAll",
      "outputs": [
        {
          "internalType": "bool",
          "name": "",
          "type": "bool"
        }
      ],
      "stateMutability": "view",
      "type": "function",
      "constant": true
    },
    {
      "inputs": [],
      "name": "name",
      "outputs": [
        {
          "internalType": "string",
          "name": "",
          "type": "string"
        }
      ],
      "stateMutability": "view",
      "type": "function",
      "constant": true
    },
    {
      "inputs": [
        {
          "internalType": "uint256",
          "name": "tokenId",
          "type": "uint256"
        }
      ],
      "name": "ownerOf",
      "outputs": [
        {
          "internalType": "address",
          "name": "",
          "type": "address"
        }
      ],
      "stateMutability": "view",
      "type": "function",
      "constant": true
    },
    {
      "inputs": [
        {
          "internalType": "address",
          "name": "from",
          "type": "address"
        },
        {
          "internalType": "address",
          "name": "to",
          "type": "address"
        },
        {
          "internalType": "uint256",
          "name": "tokenId",
          "type": "uint256"
        }
      ],
      "name": "safeTransferFrom",
      "outputs": [],
      "stateMutability": "nonpayable",
      "type": "function"
    },
    {
      "inputs": [
        {
          "internalType": "address",
          "name": "from",
          "type": "address"
        },
        {
          "internalType": "address",
          "name": "to",
          "type": "address"
        },
        {
          "internalType": "uint256",
          "name": "tokenId",
          "type": "uint256"
        },
        {
          "internalType": "bytes",
          "name": "_data",
          "type": "bytes"
        }
      ],
      "name": "safeTransferFrom",
      "outputs": [],
      "stateMutability": "nonpayable",
      "type": "function"
    },
    {
      "inputs": [
        {
          "internalType": "address",
          "name": "operator",
          "type": "address"
        },
        {
          "internalType": "bool",
          "name": "approved",
          "type": "bool"
        }
      ],
      "name": "setApprovalForAll",
      "outputs": [],
      "stateMutability": "nonpayable",
      "type": "function"
    },
    {
      "inputs": [
        {
          "internalType": "bytes4",
          "name": "interfaceId",
          "type": "bytes4"
        }
      ],
      "name": "supportsInterface",
      "outputs": [
        {
          "internalType": "bool",
          "name": "",
          "type": "bool"
        }
      ],
      "stateMutability": "view",
      "type": "function",
      "constant": true
    },
    {
      "inputs": [],
      "name": "symbol",
      "outputs": [
        {
          "internalType": "string",
          "name": "",
          "type": "string"
        }
      ],
      "stateMutability": "view",
      "type": "function",
      "constant": true
    },
    {
      "inputs": [
        {
          "internalType": "uint256",
          "name": "index",
          "type": "uint256"
        }
      ],
      "name": "tokenByIndex",
      "outputs": [
        {
          "internalType": "uint256",
          "name": "",
          "type": "uint256"
        }
      ],
      "stateMutability": "view",
      "type": "function",
      "constant": true
    },
    {
      "inputs": [
        {
          "internalType": "address",
          "name": "owner",
          "type": "address"
        },
        {
          "internalType": "uint256",
          "name": "index",
          "type": "uint256"
        }
      ],
      "name": "tokenOfOwnerByIndex",
      "outputs": [
        {
          "internalType": "uint256",
          "name": "",
          "type": "uint256"
        }
      ],
      "stateMutability": "view",
      "type": "function",
      "constant": true
    },
    {
      "inputs": [
        {
          "internalType": "uint256",
          "name": "tokenId",
          "type": "uint256"
        }
      ],
      "name": "tokenURI",
      "outputs": [
        {
          "internalType": "string",
          "name": "",
          "type": "string"
        }
      ],
      "stateMutability": "view",
      "type": "function",
      "constant": true
    },
    {
      "inputs": [],
      "name": "totalSupply",
      "outputs": [
        {
          "internalType": "uint256",
          "name": "",
          "type": "uint256"
        }
      ],
      "stateMutability": "view",
      "type": "function",
      "constant": true
    },
    {
      "inputs": [
        {
          "internalType": "address",
          "name": "from",
          "type": "address"
        },
        {
          "internalType": "address",
          "name": "to",
          "type": "address"
        },
        {
          "internalType": "uint256",
          "name": "tokenId",
          "type": "uint256"
        }
      ],
      "name": "transferFrom",
      "outputs": [],
      "stateMutability": "nonpayable",
      "type": "function"
    },
    {
      "inputs": [
        {
          "internalType": "string",
          "name": "_color",
          "type": "string"
        }
      ],
      "name": "mint",
      "outputs": [],
      "stateMutability": "nonpayable",
      "type": "function"
    }
  ],
  "bytecode": "0x60806040523480156200001157600080fd5b506040518060400160405280600581526020017f436f6c6f720000000000000000000000000000000000000000000000000000008152506040518060400160405280600581526020017f434f4c4f52000000000000000000000000000000000000000000000000000000815250816000908051906020019062000096929190620000b8565b508060019080519060200190620000af929190620000b8565b505050620001cd565b828054620000c69062000168565b90600052602060002090601f016020900481019282620000ea576000855562000136565b82601f106200010557805160ff191683800117855562000136565b8280016001018555821562000136579182015b828111156200013557825182559160200191906001019062000118565b5b50905062000145919062000149565b5090565b5b80821115620001645760008160009055506001016200014a565b5090565b600060028204905060018216806200018157607f821691505b602082108114156200019857620001976200019e565b5b50919050565b7f4e487b7100000000000000000000000000000000000000000000000000000000600052602260045260246000fd5b61319e80620001dd6000396000f3fe608060405234801561001057600080fd5b50600436106101165760003560e01c80636352211e116100a2578063b88d4fde11610071578063b88d4fde14610305578063bd11f69d14610321578063c87b56dd14610351578063d85d3d2714610381578063e985e9c51461039d57610116565b80636352211e1461026b57806370a082311461029b57806395d89b41146102cb578063a22cb465146102e957610116565b806318160ddd116100e957806318160ddd146101b557806323b872dd146101d35780632f745c59146101ef57806342842e0e1461021f5780634f6ccce71461023b57610116565b806301ffc9a71461011b57806306fdde031461014b578063081812fc14610169578063095ea7b314610199575b600080fd5b6101356004803603810190610130919061216d565b6103cd565b60405161014291906125df565b60405180910390f35b610153610447565b60405161016091906125fa565b60405180910390f35b610183600480360381019061017e9190612210565b6104d9565b6040516101909190612578565b60405180910390f35b6101b360048036038101906101ae919061212d565b61055e565b005b6101bd610676565b6040516101ca919061281c565b60405180910390f35b6101ed60048036038101906101e89190612017565b610683565b005b6102096004803603810190610204919061212d565b6106e3565b604051610216919061281c565b60405180910390f35b61023960048036038101906102349190612017565b610788565b005b61025560048036038101906102509190612210565b6107a8565b604051610262919061281c565b60405180910390f35b61028560048036038101906102809190612210565b610819565b6040516102929190612578565b60405180910390f35b6102b560048036038101906102b09190611faa565b6108cb565b6040516102c2919061281c565b60405180910390f35b6102d3610983565b6040516102e091906125fa565b60405180910390f35b61030360048036038101906102fe91906120ed565b610a15565b005b61031f600480360381019061031a919061206a565b610b96565b005b61033b60048036038101906103369190612210565b610bf8565b60405161034891906125fa565b60405180910390f35b61036b60048036038101906103669190612210565b610ca4565b60405161037891906125fa565b60405180910390f35b61039b600480360381019061039691906121c7565b610d4b565b005b6103b760048036038101906103b29190611fd7565b610e0c565b6040516103c491906125df565b60405180910390f35b60007f780e9d63000000000000000000000000000000000000000000000000000000007bffffffffffffffffffffffffffffffffffffffffffffffffffffffff1916827bffffffffffffffffffffffffffffffffffffffffffffffffffffffff19161480610440575061043f82610ea0565b5b9050919050565b60606000805461045690612a72565b80601f016020809104026020016040519081016040528092919081815260200182805461048290612a72565b80156104cf5780601f106104a4576101008083540402835291602001916104cf565b820191906000526020600020905b8154815290600101906020018083116104b257829003601f168201915b5050505050905090565b60006104e482610f82565b610523576040517f08c379a000000000000000000000000000000000000000000000000000000000815260040161051a9061275c565b60405180910390fd5b6004600083815260200190815260200160002060009054906101000a900473ffffffffffffffffffffffffffffffffffffffff169050919050565b600061056982610819565b90508073ffffffffffffffffffffffffffffffffffffffff168373ffffffffffffffffffffffffffffffffffffffff1614156105da576040517f08c379a00000000000000000000000000000000000000000000000000000000081526004016105d1906127bc565b60405180910390fd5b8073ffffffffffffffffffffffffffffffffffffffff166105f9610fee565b73ffffffffffffffffffffffffffffffffffffffff161480610628575061062781610622610fee565b610e0c565b5b610667576040517f08c379a000000000000000000000000000000000000000000000000000000000815260040161065e906126dc565b60405180910390fd5b6106718383610ff6565b505050565b6000600880549050905090565b61069461068e610fee565b826110af565b6106d3576040517f08c379a00000000000000000000000000000000000000000000000000000000081526004016106ca906127dc565b60405180910390fd5b6106de83838361118d565b505050565b60006106ee836108cb565b821061072f576040517f08c379a00000000000000000000000000000000000000000000000000000000081526004016107269061261c565b60405180910390fd5b600660008473ffffffffffffffffffffffffffffffffffffffff1673ffffffffffffffffffffffffffffffffffffffff168152602001908152602001600020600083815260200190815260200160002054905092915050565b6107a383838360405180602001604052806000815250610b96565b505050565b60006107b2610676565b82106107f3576040517f08c379a00000000000000000000000000000000000000000000000000000000081526004016107ea906127fc565b60405180910390fd5b6008828154811061080757610806612c0b565b5b90600052602060002001549050919050565b6000806002600084815260200190815260200160002060009054906101000a900473ffffffffffffffffffffffffffffffffffffffff169050600073ffffffffffffffffffffffffffffffffffffffff168173ffffffffffffffffffffffffffffffffffffffff1614156108c2576040517f08c379a00000000000000000000000000000000000000000000000000000000081526004016108b99061271c565b60405180910390fd5b80915050919050565b60008073ffffffffffffffffffffffffffffffffffffffff168273ffffffffffffffffffffffffffffffffffffffff16141561093c576040517f08c379a0000000000000000000000000000000000000000000000000000000008152600401610933906126fc565b60405180910390fd5b600360008373ffffffffffffffffffffffffffffffffffffffff1673ffffffffffffffffffffffffffffffffffffffff168152602001908152602001600020549050919050565b60606001805461099290612a72565b80601f01602080910402602001604051908101604052809291908181526020018280546109be90612a72565b8015610a0b5780601f106109e057610100808354040283529160200191610a0b565b820191906000526020600020905b8154815290600101906020018083116109ee57829003601f168201915b5050505050905090565b610a1d610fee565b73ffffffffffffffffffffffffffffffffffffffff168273ffffffffffffffffffffffffffffffffffffffff161415610a8b576040517f08c379a0000000000000000000000000000000000000000000000000000000008152600401610a829061269c565b60405180910390fd5b8060056000610a98610fee565b73ffffffffffffffffffffffffffffffffffffffff1673ffffffffffffffffffffffffffffffffffffffff16815260200190815260200160002060008473ffffffffffffffffffffffffffffffffffffffff1673ffffffffffffffffffffffffffffffffffffffff16815260200190815260200160002060006101000a81548160ff0219169083151502179055508173ffffffffffffffffffffffffffffffffffffffff16610b45610fee565b73ffffffffffffffffffffffffffffffffffffffff167f17307eab39ab6107e8899845ad3d59bd9653f200f220920489ca2b5937696c3183604051610b8a91906125df565b60405180910390a35050565b610ba7610ba1610fee565b836110af565b610be6576040517f08c379a0000000000000000000000000000000000000000000000000000000008152600401610bdd906127dc565b60405180910390fd5b610bf2848484846113e9565b50505050565b600a8181548110610c0857600080fd5b906000526020600020016000915090508054610c2390612a72565b80601f0160208091040260200160405190810160405280929190818152602001828054610c4f90612a72565b8015610c9c5780601f10610c7157610100808354040283529160200191610c9c565b820191906000526020600020905b815481529060010190602001808311610c7f57829003601f168201915b505050505081565b6060610caf82610f82565b610cee576040517f08c379a0000000000000000000000000000000000000000000000000000000008152600401610ce59061279c565b60405180910390fd5b6000610cf8611445565b90506000815111610d185760405180602001604052806000815250610d43565b80610d228461145c565b604051602001610d33929190612554565b6040516020818303038152906040525b915050919050565b600b81604051610d5b919061253d565b908152602001604051809103902060009054906101000a900460ff1615610d8157600080fd5b600a81908060018154018082558091505060019003906000526020600020016000909190919091509080519060200190610dbc929190611dbe565b506000600a805490509050610dd133826115bd565b6001600b83604051610de3919061253d565b908152602001604051809103902060006101000a81548160ff0219169083151502179055505050565b6000600560008473ffffffffffffffffffffffffffffffffffffffff1673ffffffffffffffffffffffffffffffffffffffff16815260200190815260200160002060008373ffffffffffffffffffffffffffffffffffffffff1673ffffffffffffffffffffffffffffffffffffffff16815260200190815260200160002060009054906101000a900460ff16905092915050565b60007f80ac58cd000000000000000000000000000000000000000000000000000000007bffffffffffffffffffffffffffffffffffffffffffffffffffffffff1916827bffffffffffffffffffffffffffffffffffffffffffffffffffffffff19161480610f6b57507f5b5e139f000000000000000000000000000000000000000000000000000000007bffffffffffffffffffffffffffffffffffffffffffffffffffffffff1916827bffffffffffffffffffffffffffffffffffffffffffffffffffffffff1916145b80610f7b5750610f7a8261178b565b5b9050919050565b60008073ffffffffffffffffffffffffffffffffffffffff166002600084815260200190815260200160002060009054906101000a900473ffffffffffffffffffffffffffffffffffffffff1673ffffffffffffffffffffffffffffffffffffffff1614159050919050565b600033905090565b816004600083815260200190815260200160002060006101000a81548173ffffffffffffffffffffffffffffffffffffffff021916908373ffffffffffffffffffffffffffffffffffffffff160217905550808273ffffffffffffffffffffffffffffffffffffffff1661106983610819565b73ffffffffffffffffffffffffffffffffffffffff167f8c5be1e5ebec7d5bd14f71427d1e84f3dd0314c0f7b2291e5b200ac8c7c3b92560405160405180910390a45050565b60006110ba82610f82565b6110f9576040517f08c379a00000000000000000000000000000000000000000000000000000000081526004016110f0906126bc565b60405180910390fd5b600061110483610819565b90508073ffffffffffffffffffffffffffffffffffffffff168473ffffffffffffffffffffffffffffffffffffffff16148061117357508373ffffffffffffffffffffffffffffffffffffffff1661115b846104d9565b73ffffffffffffffffffffffffffffffffffffffff16145b8061118457506111838185610e0c565b5b91505092915050565b8273ffffffffffffffffffffffffffffffffffffffff166111ad82610819565b73ffffffffffffffffffffffffffffffffffffffff1614611203576040517f08c379a00000000000000000000000000000000000000000000000000000000081526004016111fa9061277c565b60405180910390fd5b600073ffffffffffffffffffffffffffffffffffffffff168273ffffffffffffffffffffffffffffffffffffffff161415611273576040517f08c379a000000000000000000000000000000000000000000000000000000000815260040161126a9061267c565b60405180910390fd5b61127e8383836117f5565b611289600082610ff6565b6001600360008573ffffffffffffffffffffffffffffffffffffffff1673ffffffffffffffffffffffffffffffffffffffff16815260200190815260200160002060008282546112d99190612988565b925050819055506001600360008473ffffffffffffffffffffffffffffffffffffffff1673ffffffffffffffffffffffffffffffffffffffff16815260200190815260200160002060008282546113309190612901565b92505081905550816002600083815260200190815260200160002060006101000a81548173ffffffffffffffffffffffffffffffffffffffff021916908373ffffffffffffffffffffffffffffffffffffffff160217905550808273ffffffffffffffffffffffffffffffffffffffff168473ffffffffffffffffffffffffffffffffffffffff167fddf252ad1be2c89b69c2b068fc378daa952ba7f163c4a11628f55a4df523b3ef60405160405180910390a4505050565b6113f484848461118d565b61140084848484611909565b61143f576040517f08c379a00000000000000000000000000000000000000000000000000000000081526004016114369061263c565b60405180910390fd5b50505050565b606060405180602001604052806000815250905090565b606060008214156114a4576040518060400160405280600181526020017f300000000000000000000000000000000000000000000000000000000000000081525090506115b8565b600082905060005b600082146114d65780806114bf90612ad5565b915050600a826114cf9190612957565b91506114ac565b60008167ffffffffffffffff8111156114f2576114f1612c3a565b5b6040519080825280601f01601f1916602001820160405280156115245781602001600182028036833780820191505090505b5090505b600085146115b15760018261153d9190612988565b9150600a8561154c9190612b1e565b60306115589190612901565b60f81b81838151811061156e5761156d612c0b565b5b60200101907effffffffffffffffffffffffffffffffffffffffffffffffffffffffffffff1916908160001a905350600a856115aa9190612957565b9450611528565b8093505050505b919050565b600073ffffffffffffffffffffffffffffffffffffffff168273ffffffffffffffffffffffffffffffffffffffff16141561162d576040517f08c379a00000000000000000000000000000000000000000000000000000000081526004016116249061273c565b60405180910390fd5b61163681610f82565b15611676576040517f08c379a000000000000000000000000000000000000000000000000000000000815260040161166d9061265c565b60405180910390fd5b611682600083836117f5565b6001600360008473ffffffffffffffffffffffffffffffffffffffff1673ffffffffffffffffffffffffffffffffffffffff16815260200190815260200160002060008282546116d29190612901565b92505081905550816002600083815260200190815260200160002060006101000a81548173ffffffffffffffffffffffffffffffffffffffff021916908373ffffffffffffffffffffffffffffffffffffffff160217905550808273ffffffffffffffffffffffffffffffffffffffff16600073ffffffffffffffffffffffffffffffffffffffff167fddf252ad1be2c89b69c2b068fc378daa952ba7f163c4a11628f55a4df523b3ef60405160405180910390a45050565b60007f01ffc9a7000000000000000000000000000000000000000000000000000000007bffffffffffffffffffffffffffffffffffffffffffffffffffffffff1916827bffffffffffffffffffffffffffffffffffffffffffffffffffffffff1916149050919050565b611800838383611aa0565b600073ffffffffffffffffffffffffffffffffffffffff168373ffffffffffffffffffffffffffffffffffffffff1614156118435761183e81611aa5565b611882565b8173ffffffffffffffffffffffffffffffffffffffff168373ffffffffffffffffffffffffffffffffffffffff1614611881576118808382611aee565b5b5b600073ffffffffffffffffffffffffffffffffffffffff168273ffffffffffffffffffffffffffffffffffffffff1614156118c5576118c081611c5b565b611904565b8273ffffffffffffffffffffffffffffffffffffffff168273ffffffffffffffffffffffffffffffffffffffff1614611903576119028282611d2c565b5b5b505050565b600061192a8473ffffffffffffffffffffffffffffffffffffffff16611dab565b15611a93578373ffffffffffffffffffffffffffffffffffffffff1663150b7a02611953610fee565b8786866040518563ffffffff1660e01b81526004016119759493929190612593565b602060405180830381600087803b15801561198f57600080fd5b505af19250505080156119c057506040513d601f19601f820116820180604052508101906119bd919061219a565b60015b611a43573d80600081146119f0576040519150601f19603f3d011682016040523d82523d6000602084013e6119f5565b606091505b50600081511415611a3b576040517f08c379a0000000000000000000000000000000000000000000000000000000008152600401611a329061263c565b60405180910390fd5b805181602001fd5b63150b7a0260e01b7bffffffffffffffffffffffffffffffffffffffffffffffffffffffff1916817bffffffffffffffffffffffffffffffffffffffffffffffffffffffff191614915050611a98565b600190505b949350505050565b505050565b6008805490506009600083815260200190815260200160002081905550600881908060018154018082558091505060019003906000526020600020016000909190919091505550565b60006001611afb846108cb565b611b059190612988565b9050600060076000848152602001908152602001600020549050818114611bea576000600660008673ffffffffffffffffffffffffffffffffffffffff1673ffffffffffffffffffffffffffffffffffffffff168152602001908152602001600020600084815260200190815260200160002054905080600660008773ffffffffffffffffffffffffffffffffffffffff1673ffffffffffffffffffffffffffffffffffffffff168152602001908152602001600020600084815260200190815260200160002081905550816007600083815260200190815260200160002081905550505b6007600084815260200190815260200160002060009055600660008573ffffffffffffffffffffffffffffffffffffffff1673ffffffffffffffffffffffffffffffffffffffff16815260200190815260200160002060008381526020019081526020016000206000905550505050565b60006001600880549050611c6f9190612988565b9050600060096000848152602001908152602001600020549050600060088381548110611c9f57611c9e612c0b565b5b906000526020600020015490508060088381548110611cc157611cc0612c0b565b5b906000526020600020018190555081600960008381526020019081526020016000208190555060096000858152602001908152602001600020600090556008805480611d1057611d0f612bdc565b5b6001900381819060005260206000200160009055905550505050565b6000611d37836108cb565b905081600660008573ffffffffffffffffffffffffffffffffffffffff1673ffffffffffffffffffffffffffffffffffffffff168152602001908152602001600020600083815260200190815260200160002081905550806007600084815260200190815260200160002081905550505050565b600080823b905060008111915050919050565b828054611dca90612a72565b90600052602060002090601f016020900481019282611dec5760008555611e33565b82601f10611e0557805160ff1916838001178555611e33565b82800160010185558215611e33579182015b82811115611e32578251825591602001919060010190611e17565b5b509050611e409190611e44565b5090565b5b80821115611e5d576000816000905550600101611e45565b5090565b6000611e74611e6f8461285c565b612837565b905082815260208101848484011115611e9057611e8f612c6e565b5b611e9b848285612a30565b509392505050565b6000611eb6611eb18461288d565b612837565b905082815260208101848484011115611ed257611ed1612c6e565b5b611edd848285612a30565b509392505050565b600081359050611ef48161310c565b92915050565b600081359050611f0981613123565b92915050565b600081359050611f1e8161313a565b92915050565b600081519050611f338161313a565b92915050565b600082601f830112611f4e57611f4d612c69565b5b8135611f5e848260208601611e61565b91505092915050565b600082601f830112611f7c57611f7b612c69565b5b8135611f8c848260208601611ea3565b91505092915050565b600081359050611fa481613151565b92915050565b600060208284031215611fc057611fbf612c78565b5b6000611fce84828501611ee5565b91505092915050565b60008060408385031215611fee57611fed612c78565b5b6000611ffc85828601611ee5565b925050602061200d85828601611ee5565b9150509250929050565b6000806000606084860312156120305761202f612c78565b5b600061203e86828701611ee5565b935050602061204f86828701611ee5565b925050604061206086828701611f95565b9150509250925092565b6000806000806080858703121561208457612083612c78565b5b600061209287828801611ee5565b94505060206120a387828801611ee5565b93505060406120b487828801611f95565b925050606085013567ffffffffffffffff8111156120d5576120d4612c73565b5b6120e187828801611f39565b91505092959194509250565b6000806040838503121561210457612103612c78565b5b600061211285828601611ee5565b925050602061212385828601611efa565b9150509250929050565b6000806040838503121561214457612143612c78565b5b600061215285828601611ee5565b925050602061216385828601611f95565b9150509250929050565b60006020828403121561218357612182612c78565b5b600061219184828501611f0f565b91505092915050565b6000602082840312156121b0576121af612c78565b5b60006121be84828501611f24565b91505092915050565b6000602082840312156121dd576121dc612c78565b5b600082013567ffffffffffffffff8111156121fb576121fa612c73565b5b61220784828501611f67565b91505092915050565b60006020828403121561222657612225612c78565b5b600061223484828501611f95565b91505092915050565b612246816129bc565b82525050565b612255816129ce565b82525050565b6000612266826128be565b61227081856128d4565b9350612280818560208601612a3f565b61228981612c7d565b840191505092915050565b600061229f826128c9565b6122a981856128e5565b93506122b9818560208601612a3f565b6122c281612c7d565b840191505092915050565b60006122d8826128c9565b6122e281856128f6565b93506122f2818560208601612a3f565b80840191505092915050565b600061230b602b836128e5565b915061231682612c8e565b604082019050919050565b600061232e6032836128e5565b915061233982612cdd565b604082019050919050565b6000612351601c836128e5565b915061235c82612d2c565b602082019050919050565b60006123746024836128e5565b915061237f82612d55565b604082019050919050565b60006123976019836128e5565b91506123a282612da4565b602082019050919050565b60006123ba602c836128e5565b91506123c582612dcd565b604082019050919050565b60006123dd6038836128e5565b91506123e882612e1c565b604082019050919050565b6000612400602a836128e5565b915061240b82612e6b565b604082019050919050565b60006124236029836128e5565b915061242e82612eba565b604082019050919050565b60006124466020836128e5565b915061245182612f09565b602082019050919050565b6000612469602c836128e5565b915061247482612f32565b604082019050919050565b600061248c6029836128e5565b915061249782612f81565b604082019050919050565b60006124af602f836128e5565b91506124ba82612fd0565b604082019050919050565b60006124d26021836128e5565b91506124dd8261301f565b604082019050919050565b60006124f56031836128e5565b91506125008261306e565b604082019050919050565b6000612518602c836128e5565b9150612523826130bd565b604082019050919050565b61253781612a26565b82525050565b600061254982846122cd565b915081905092915050565b600061256082856122cd565b915061256c82846122cd565b91508190509392505050565b600060208201905061258d600083018461223d565b92915050565b60006080820190506125a8600083018761223d565b6125b5602083018661223d565b6125c2604083018561252e565b81810360608301526125d4818461225b565b905095945050505050565b60006020820190506125f4600083018461224c565b92915050565b600060208201905081810360008301526126148184612294565b905092915050565b60006020820190508181036000830152612635816122fe565b9050919050565b6000602082019050818103600083015261265581612321565b9050919050565b6000602082019050818103600083015261267581612344565b9050919050565b6000602082019050818103600083015261269581612367565b9050919050565b600060208201905081810360008301526126b58161238a565b9050919050565b600060208201905081810360008301526126d5816123ad565b9050919050565b600060208201905081810360008301526126f5816123d0565b9050919050565b60006020820190508181036000830152612715816123f3565b9050919050565b6000602082019050818103600083015261273581612416565b9050919050565b6000602082019050818103600083015261275581612439565b9050919050565b600060208201905081810360008301526127758161245c565b9050919050565b600060208201905081810360008301526127958161247f565b9050919050565b600060208201905081810360008301526127b5816124a2565b9050919050565b600060208201905081810360008301526127d5816124c5565b9050919050565b600060208201905081810360008301526127f5816124e8565b9050919050565b600060208201905081810360008301526128158161250b565b9050919050565b6000602082019050612831600083018461252e565b92915050565b6000612841612852565b905061284d8282612aa4565b919050565b6000604051905090565b600067ffffffffffffffff82111561287757612876612c3a565b5b61288082612c7d565b9050602081019050919050565b600067ffffffffffffffff8211156128a8576128a7612c3a565b5b6128b182612c7d565b9050602081019050919050565b600081519050919050565b600081519050919050565b600082825260208201905092915050565b600082825260208201905092915050565b600081905092915050565b600061290c82612a26565b915061291783612a26565b9250827fffffffffffffffffffffffffffffffffffffffffffffffffffffffffffffffff0382111561294c5761294b612b4f565b5b828201905092915050565b600061296282612a26565b915061296d83612a26565b92508261297d5761297c612b7e565b5b828204905092915050565b600061299382612a26565b915061299e83612a26565b9250828210156129b1576129b0612b4f565b5b828203905092915050565b60006129c782612a06565b9050919050565b60008115159050919050565b60007fffffffff0000000000000000000000000000000000000000000000000000000082169050919050565b600073ffffffffffffffffffffffffffffffffffffffff82169050919050565b6000819050919050565b82818337600083830152505050565b60005b83811015612a5d578082015181840152602081019050612a42565b83811115612a6c576000848401525b50505050565b60006002820490506001821680612a8a57607f821691505b60208210811415612a9e57612a9d612bad565b5b50919050565b612aad82612c7d565b810181811067ffffffffffffffff82111715612acc57612acb612c3a565b5b80604052505050565b6000612ae082612a26565b91507fffffffffffffffffffffffffffffffffffffffffffffffffffffffffffffffff821415612b1357612b12612b4f565b5b600182019050919050565b6000612b2982612a26565b9150612b3483612a26565b925082612b4457612b43612b7e565b5b828206905092915050565b7f4e487b7100000000000000000000000000000000000000000000000000000000600052601160045260246000fd5b7f4e487b7100000000000000000000000000000000000000000000000000000000600052601260045260246000fd5b7f4e487b7100000000000000000000000000000000000000000000000000000000600052602260045260246000fd5b7f4e487b7100000000000000000000000000000000000000000000000000000000600052603160045260246000fd5b7f4e487b7100000000000000000000000000000000000000000000000000000000600052603260045260246000fd5b7f4e487b7100000000000000000000000000000000000000000000000000000000600052604160045260246000fd5b600080fd5b600080fd5b600080fd5b600080fd5b6000601f19601f8301169050919050565b7f455243373231456e756d657261626c653a206f776e657220696e646578206f7560008201527f74206f6620626f756e6473000000000000000000000000000000000000000000602082015250565b7f4552433732313a207472616e7366657220746f206e6f6e20455243373231526560008201527f63656976657220696d706c656d656e7465720000000000000000000000000000602082015250565b7f4552433732313a20746f6b656e20616c7265616479206d696e74656400000000600082015250565b7f4552433732313a207472616e7366657220746f20746865207a65726f2061646460008201527f7265737300000000000000000000000000000000000000000000000000000000602082015250565b7f4552433732313a20617070726f766520746f2063616c6c657200000000000000600082015250565b7f4552433732313a206f70657261746f7220717565727920666f72206e6f6e657860008201527f697374656e7420746f6b656e0000000000000000000000000000000000000000602082015250565b7f4552433732313a20617070726f76652063616c6c6572206973206e6f74206f7760008201527f6e6572206e6f7220617070726f76656420666f7220616c6c0000000000000000602082015250565b7f4552433732313a2062616c616e636520717565727920666f7220746865207a6560008201527f726f206164647265737300000000000000000000000000000000000000000000602082015250565b7f4552433732313a206f776e657220717565727920666f72206e6f6e657869737460008201527f656e7420746f6b656e0000000000000000000000000000000000000000000000602082015250565b7f4552433732313a206d696e7420746f20746865207a65726f2061646472657373600082015250565b7f4552433732313a20617070726f76656420717565727920666f72206e6f6e657860008201527f697374656e7420746f6b656e0000000000000000000000000000000000000000602082015250565b7f4552433732313a207472616e73666572206f6620746f6b656e2074686174206960008201527f73206e6f74206f776e0000000000000000000000000000000000000000000000602082015250565b7f4552433732314d657461646174613a2055524920717565727920666f72206e6f60008201527f6e6578697374656e7420746f6b656e0000000000000000000000000000000000602082015250565b7f4552433732313a20617070726f76616c20746f2063757272656e74206f776e6560008201527f7200000000000000000000000000000000000000000000000000000000000000602082015250565b7f4552433732313a207472616e736665722063616c6c6572206973206e6f74206f60008201527f776e6572206e6f7220617070726f766564000000000000000000000000000000602082015250565b7f455243373231456e756d657261626c653a20676c6f62616c20696e646578206f60008201527f7574206f6620626f756e64730000000000000000000000000000000000000000602082015250565b613115816129bc565b811461312057600080fd5b50565b61312c816129ce565b811461313757600080fd5b50565b613143816129da565b811461314e57600080fd5b50565b61315a81612a26565b811461316557600080fd5b5056fea2646970667358221220c3af664f43d02f2f0ff0280341bd43f912aa95ef269db0b119e0ab298af0669164736f6c63430008070033",
  "immutableReferences": {},
  "source": "// SPDX-License-Identifier: MIT\npragma solidity 0.8.7;\n\n//import \"./ERC721.sol\";\nimport \"./ERC721Enumerable.sol\";\n\ncontract Color is ERC721Enumerable {\n\n    string[] public colors;\n    mapping(string => bool) _colorExists;\n\n    constructor() ERC721(\"Color\", \"COLOR\") {\n\n    }\n\n    function mint(string memory _color) public {\n        require(!_colorExists[_color]);\n        colors.push(_color);\n        uint _id = colors.length;\n        _mint(msg.sender, _id);\n        _colorExists[_color] = true;\n    }\n}",
  "sourcePath": "/Users/narangarig/Documents/Truffle/nft/src/contracts/Color.sol",
  "compiler": {
    "name": "solc",
    "version": "0.8.7+commit.e28d00a7.Emscripten.clang"
  },
  "schemaVersion": "3.4.3",
  "updatedAt": "2021-08-19T05:17:26.149Z",
  "networkType": "ethereum",
  "devdoc": {
    "kind": "dev",
    "methods": {
      "approve(address,uint256)": {
        "details": "See {IERC721-approve}."
      },
      "balanceOf(address)": {
        "details": "See {IERC721-balanceOf}."
      },
      "getApproved(uint256)": {
        "details": "See {IERC721-getApproved}."
      },
      "isApprovedForAll(address,address)": {
        "details": "See {IERC721-isApprovedForAll}."
      },
      "name()": {
        "details": "See {IERC721Metadata-name}."
      },
      "ownerOf(uint256)": {
        "details": "See {IERC721-ownerOf}."
      },
      "safeTransferFrom(address,address,uint256)": {
        "details": "See {IERC721-safeTransferFrom}."
      },
      "safeTransferFrom(address,address,uint256,bytes)": {
        "details": "See {IERC721-safeTransferFrom}."
      },
      "setApprovalForAll(address,bool)": {
        "details": "See {IERC721-setApprovalForAll}."
      },
      "supportsInterface(bytes4)": {
        "details": "See {IERC165-supportsInterface}."
      },
      "symbol()": {
        "details": "See {IERC721Metadata-symbol}."
      },
      "tokenByIndex(uint256)": {
        "details": "See {IERC721Enumerable-tokenByIndex}."
      },
      "tokenOfOwnerByIndex(address,uint256)": {
        "details": "See {IERC721Enumerable-tokenOfOwnerByIndex}."
      },
      "tokenURI(uint256)": {
        "details": "See {IERC721Metadata-tokenURI}."
      },
      "totalSupply()": {
        "details": "See {IERC721Enumerable-totalSupply}."
      },
      "transferFrom(address,address,uint256)": {
        "details": "See {IERC721-transferFrom}."
      }
    },
    "version": 1
  },
  "userdoc": {
    "kind": "user",
    "methods": {},
    "version": 1
  }
}